{
  "contractName": "ItemManager",
  "abi": [
    {
      "anonymous": false,
      "inputs": [
        {
          "indexed": false,
          "internalType": "uint256",
          "name": "_itemIndex",
          "type": "uint256"
        },
        {
          "indexed": false,
          "internalType": "uint256",
          "name": "_step",
          "type": "uint256"
        },
        {
          "indexed": false,
          "internalType": "address",
          "name": "_address",
          "type": "address"
        }
      ],
      "name": "SupplyChainStep",
      "type": "event"
    },
    {
      "inputs": [
        {
          "internalType": "uint256",
          "name": "",
          "type": "uint256"
        }
      ],
      "name": "items",
      "outputs": [
        {
          "internalType": "contract Item",
          "name": "_item",
          "type": "address"
        },
        {
          "internalType": "string",
          "name": "_identifier",
          "type": "string"
        },
        {
          "internalType": "uint256",
          "name": "_ean",
          "type": "uint256"
        },
        {
          "internalType": "enum ItemManager.SupplyChainSteps",
          "name": "_step",
          "type": "uint8"
        }
      ],
      "stateMutability": "view",
      "type": "function",
      "constant": true
    },
    {
      "inputs": [
        {
          "internalType": "string",
          "name": "_identifier",
          "type": "string"
        },
        {
          "internalType": "uint256",
          "name": "_ean",
          "type": "uint256"
        },
        {
          "internalType": "uint256",
          "name": "_priceInWei",
          "type": "uint256"
        }
      ],
      "name": "createItem",
      "outputs": [],
      "stateMutability": "nonpayable",
      "type": "function"
    },
    {
      "inputs": [
        {
          "internalType": "uint256",
          "name": "_index",
          "type": "uint256"
        }
      ],
      "name": "triggerPayment",
      "outputs": [],
      "stateMutability": "payable",
      "type": "function",
      "payable": true
    },
    {
      "inputs": [
        {
          "internalType": "uint256",
          "name": "_index",
          "type": "uint256"
        }
      ],
      "name": "triggerDelivery",
      "outputs": [],
      "stateMutability": "nonpayable",
      "type": "function"
    }
  ],
  "bytecode": "0x608060405234801561001057600080fd5b50610e81806100206000396000f3fe60806040526004361061003f5760003560e01c8063108155bc14610044578063800fb83f14610120578063bfb231d21461014e578063cd31831e14610251575b600080fd5b34801561005057600080fd5b5061011e6004803603606081101561006757600080fd5b810190808035906020019064010000000081111561008457600080fd5b82018360208201111561009657600080fd5b803590602001918460018302840111640100000000831117156100b857600080fd5b91908080601f016020809104026020016040519081016040528093929190818152602001838380828437600081840152601f19601f820116905080830192505050505050509192919290803590602001909291908035906020019092919050505061028c565b005b61014c6004803603602081101561013657600080fd5b8101908080359060200190929190505050610495565b005b34801561015a57600080fd5b506101876004803603602081101561017157600080fd5b81019080803590602001909291905050506106fb565b604051808573ffffffffffffffffffffffffffffffffffffffff1673ffffffffffffffffffffffffffffffffffffffff168152602001806020018481526020018360028111156101d357fe5b60ff168152602001828103825285818151815260200191508051906020019080838360005b838110156102135780820151818401526020810190506101f8565b50505050905090810190601f1680156102405780820380516001836020036101000a031916815260200191505b509550505050505060405180910390f35b34801561025d57600080fd5b5061028a6004803603602081101561027457600080fd5b81019080803590602001909291905050506107f0565b005b6000308260015460405161029f906109b3565b808473ffffffffffffffffffffffffffffffffffffffff1673ffffffffffffffffffffffffffffffffffffffff1681526020018381526020018281526020019350505050604051809103906000f0801580156102ff573d6000803e3d6000fd5b50905080600080600154815260200190815260200160002060000160006101000a81548173ffffffffffffffffffffffffffffffffffffffff021916908373ffffffffffffffffffffffffffffffffffffffff16021790555083600080600154815260200190815260200160002060010190805190602001906103839291906109c0565b50826000806001548152602001908152602001600020600201819055506000806000600154815260200190815260200160002060030160006101000a81548160ff021916908360028111156103d457fe5b02179055507fa4035636e99f06b7651a604c1019fa4e8779fe68ef27eeb74dff2de348f6199b600154600080600154815260200190815260200160002060030160009054906101000a900460ff16600281111561042d57fe5b83604051808481526020018381526020018273ffffffffffffffffffffffffffffffffffffffff1673ffffffffffffffffffffffffffffffffffffffff168152602001935050505060405180910390a160016000815480929190600101919050555050505050565b600080600083815260200190815260200160002060000160009054906101000a900473ffffffffffffffffffffffffffffffffffffffff1690503373ffffffffffffffffffffffffffffffffffffffff168173ffffffffffffffffffffffffffffffffffffffff1614610570576040517f08c379a000000000000000000000000000000000000000000000000000000000815260040180806020018281038252600b8152602001807f4e6f7420616c6c6f77656400000000000000000000000000000000000000000081525060200191505060405180910390fd5b6000600281111561057d57fe5b600080600154815260200190815260200160002060030160009054906101000a900460ff1660028111156105ad57fe5b14610620576040517f08c379a000000000000000000000000000000000000000000000000000000000815260040180806020018281038252600c8152602001807f416c72656164792070616964000000000000000000000000000000000000000081525060200191505060405180910390fd5b600160008084815260200190815260200160002060030160006101000a81548160ff0219169083600281111561065257fe5b02179055507fa4035636e99f06b7651a604c1019fa4e8779fe68ef27eeb74dff2de348f6199b8260008085815260200190815260200160002060030160009054906101000a900460ff1660028111156106a757fe5b83604051808481526020018381526020018273ffffffffffffffffffffffffffffffffffffffff1673ffffffffffffffffffffffffffffffffffffffff168152602001935050505060405180910390a15050565b60006020528060005260406000206000915090508060000160009054906101000a900473ffffffffffffffffffffffffffffffffffffffff1690806001018054600181600116156101000203166002900480601f0160208091040260200160405190810160405280929190818152602001828054600181600116156101000203166002900480156107cd5780601f106107a2576101008083540402835291602001916107cd565b820191906000526020600020905b8154815290600101906020018083116107b057829003601f168201915b5050505050908060020154908060030160009054906101000a900460ff16905084565b600160028111156107fd57fe5b600080600154815260200190815260200160002060030160009054906101000a900460ff16600281111561082d57fe5b146108a0576040517f08c379a000000000000000000000000000000000000000000000000000000000815260040180806020018281038252600c8152602001807f4e6f7420706f737369626c65000000000000000000000000000000000000000081525060200191505060405180910390fd5b6002600080600154815260200190815260200160002060030160006101000a81548160ff021916908360028111156108d457fe5b02179055507fa4035636e99f06b7651a604c1019fa4e8779fe68ef27eeb74dff2de348f6199b8160008084815260200190815260200160002060030160009054906101000a900460ff16600281111561092957fe5b600080600154815260200190815260200160002060000160009054906101000a900473ffffffffffffffffffffffffffffffffffffffff16604051808481526020018381526020018273ffffffffffffffffffffffffffffffffffffffff1673ffffffffffffffffffffffffffffffffffffffff168152602001935050505060405180910390a150565b6103e680610a6683390190565b828054600181600116156101000203166002900490600052602060002090601f016020900481019282601f10610a0157805160ff1916838001178555610a2f565b82800160010185558215610a2f579182015b82811115610a2e578251825591602001919060010190610a13565b5b509050610a3c9190610a40565b5090565b610a6291905b80821115610a5e576000816000905550600101610a46565b5090565b9056fe608060405234801561001057600080fd5b506040516103e63803806103e68339818101604052606081101561003357600080fd5b8101908080519060200190929190805190602001909291908051906020019092919050505082600360006101000a81548173ffffffffffffffffffffffffffffffffffffffff021916908373ffffffffffffffffffffffffffffffffffffffff160217905550806000819055508160018190555050505061032d806100b96000396000f3fe6080604052366102e8576001543414610080576040517f08c379a00000000000000000000000000000000000000000000000000000000081526004018080602001828103825260128152602001807f4f6e6c792066756c6c207061796d656e7473000000000000000000000000000081525060200191505060405180910390fd5b6000600254146100f8576040517f08c379a000000000000000000000000000000000000000000000000000000000815260040180806020018281038252600c8152602001807f616c72656164792070616964000000000000000000000000000000000000000081525060200191505060405180910390fd5b346002600082825401925050819055506000600360009054906101000a900473ffffffffffffffffffffffffffffffffffffffff1673ffffffffffffffffffffffffffffffffffffffff1634600054604051602401808281526020019150506040516020818303038152906040527f800fb83f000000000000000000000000000000000000000000000000000000007bffffffffffffffffffffffffffffffffffffffffffffffffffffffff19166020820180517bffffffffffffffffffffffffffffffffffffffffffffffffffffffff83818316178352505050506040518082805190602001908083835b6020831061020757805182526020820191506020810190506020830392506101e4565b6001836020036101000a03801982511681845116808217855250505050505090500191505060006040518083038185875af1925050503d8060008114610269576040519150601f19603f3d011682016040523d82523d6000602084013e61026e565b606091505b50509050806102e5576040517f08c379a000000000000000000000000000000000000000000000000000000000815260040180806020018281038252600e8152602001807f5061796d656e74206661696c656400000000000000000000000000000000000081525060200191505060405180910390fd5b50005b3480156102f457600080fd5b5000fea2646970667358221220b6a4f08d066be840956473cc1c690070a7944b34acb610c38f847e66d7c2cecd64736f6c63430006050033a26469706673582212209f4da0416ea5a2bdc52d63bdb3acd37eb9e6db3f22d246bc8ea710c16b59841c64736f6c63430006050033",
  "source": "pragma solidity ^0.6.4;\r\n\r\nimport \"./Item.sol\";\r\nimport \"./Ownable.sol\";\r\n\r\ncontract ItemManager {\r\n    \r\n    enum SupplyChainSteps {Created, Paid, Delivered}\r\n    \r\n    struct S_Item {\r\n        Item _item;\r\n        string _identifier;\r\n        uint _ean;\r\n        ItemManager.SupplyChainSteps _step;\r\n    }\r\n    \r\n    mapping(uint => S_Item) public items;\r\n    \r\n    uint index;\r\n    \r\n    event SupplyChainStep(uint _itemIndex, uint _step, address _address);\r\n    \r\n    function createItem(string memory _identifier, uint _ean, uint _priceInWei) public  {\r\n        Item item = new Item(this, _priceInWei, index);\r\n        items[index]._item = item;\r\n        items[index]._identifier = _identifier; \r\n        items[index]._ean = _ean; \r\n        items[index]._step = SupplyChainSteps.Created;\r\n        emit SupplyChainStep(index, uint(items[index]._step), address(item));        \r\n        index++;\r\n\r\n    }\r\n    \r\n    function triggerPayment(uint _index) public payable  {\r\n        Item item = items[_index]._item; \r\n        require(address(item) == msg.sender, \"Not allowed\");\r\n        require(items[index]._step == SupplyChainSteps.Created, \"Already paid\");        \r\n        items[_index]._step = SupplyChainSteps.Paid;\r\n        emit SupplyChainStep(_index, uint(items[_index]._step), address(item));         \r\n        \r\n    } \r\n    \r\n    function triggerDelivery(uint _index) public {\r\n        require(items[index]._step == SupplyChainSteps.Paid, \"Not possible\");         \r\n        items[index]._step = SupplyChainSteps.Delivered;\r\n        emit SupplyChainStep(_index, uint(items[_index]._step), address(items[index]._item));          \r\n        \r\n    }\r\n}",
  "sourcePath": "C:\\supplychain_mgm\\contracts\\ItemManager.sol",
  "compiler": {
    "name": "solc",
    "version": "0.6.5+commit.f956cc89.Emscripten.clang"
  },
  "schemaVersion": "3.0.20",
  "updatedAt": "2020-12-02T09:41:01.454Z",
  "networkType": "ethereum",
  "devdoc": {
    "methods": {}
  },
  "userdoc": {
    "methods": {}
  }
}